:020000040800F2
:100000007007002011020008450D00083D0D000892
:10001000410D0008350D0008ED0E0008000000003D
:100020000000000000000000000000004D0D00086E
:10003000390D000800000000490D0008510D0008AE
:100040002B0200082B0200082B0200082B020008DC
:100050002B0200082B0200082B0200082B020008CC
:100060002B0200082B0200082B0200082B020008BC
:100070002B0200082B0200082B0200082B020008AC
:100080002B0200082B0200082B0200082B0200089C
:100090002B0200082B0200082B0200082B0200088C
:1000A0002B0200082B0200082B0200082B0200087C
:1000B0002B0200082B0200082B0200082B0200086C
:1000C0002B0200082B0200082B0200082B0200085C
:1000D0002B0200082B0200082B0200082B0200084C
:1000E0002B0200082B0200082B0200082B0200083C
:1000F0002B0200082B0200082B0200082B0200082C
:100100002B0200082B0200082B0200082B0200081B
:100110002B0200082B0200082B0200082B0200080B
:100120002B0200082B0200082B0200082B020008FB
:1001300000F002F800F05DF814A696E8000CB24456
:10014000B344DA4501D100F054F8BAE80F000FA625
:1001500096E83000A5EB040504EB0607AAEB0704BC
:10016000A7F101074FEA15154FEA3414A4F1010471
:10017000AC4201D300F03DF813F0010F18BFFB1A99
:1001800043F0010300F001F8DBE718473C160000DC
:100190005C160000103A24BF78C878C1FAD852071C
:1001A00024BF30C830C144BF04680C6070470000F1
:1001B000704700000023002400250026103A28BFC5
:1001C00078C1FBD8520728BF30C148BF0B607047C9
:1001D000642900F07D80002070471FB59DE8030072
:1001E00000F070FB00F03AF91FBD10B500F09FF968
:1001F00010BD00F0CFF91146FFF7EFFF01F0ACF8AA
:1002000000F0D6FA03B4FFF7F0FF03BC00F0D8FC0F
:100210000948804709480047FEE7FEE7FEE7FEE79A
:10022000FEE7FEE7FEE7FEE7FEE7FEE704480549D6
:10023000054A064B70470000550D000831010008C3
:100240007001002070070020700300207003002060
:100250000FB4044910B503AA029800F0D1F810BCFD
:100260005DF814FB640000202DE9F0410E460446C1
:10027000002020622046E168884730B3252805D059
:10028000D4E901219047206A401CF2E7E16820464A
:1002900000278847050018D0A5F14100192802D889
:1002A00020354FF400673246294620462760FFF785
:1002B0008FFF40B1012804D0F61D26F0070608364E
:1002C000D8E7361DD6E72846DAE7206ABDE8F08190
:1002D0002DE9F0410646002410687529314616A51F
:1002E00010D0AFF30080002802DA404213A507E0E7
:1002F00031688A0701D512A502E0490704D511A586
:10030000012401E0AFF3008000210A2206F1240756
:1003100009E0B0FBF2FCB0FBF2F302FB1C00303052
:1003200078541846491C0028F3D123462A46304603
:10033000BDE8F04100F00BB8000000002D00000007
:100340002B000000200000007047704770472DE927
:10035000F0470D4699469246044600F1240801688C
:10036000880604D5E06921F01001216000E0012039
:10037000A84201DD471B00E00027A1697A1902EBC2
:100380000900081AA0612078C00602D42046AFF305
:100390000080002608E0D4E901211AF80600904701
:1003A000206A401C761C20624E45F4DB2078C00693
:1003B0000AD52046AFF3008006E0D4E901213020C1
:1003C0009047206A401C2062381EA7F10107F4DC28
:1003D00007E0D4E9012118F805009047206A401C85
:1003E0002062281EA5F10105F3DC2046AFF3008052
:1003F0002078000602D50220BDE8F0870120FBE747
:10040000074B70B50D467B4400F011F804462846B2
:1004100000F020F810B14FF0FF3070BD204670BDE5
:10042000BB0B000001694A1C02610878704700B5E7
:100430008FB0CDE901310021059105497944CDE91D
:10044000031011466846FFF70FFF0FB000BD000014
:10045000E5FFFFFF007B00F08000704710B54248C9
:10046000542100F0B5F94148542100F0B1F9404859
:10047000542100F0ADF93F493B483C4A3F4B0860EE
:100480003D490A603A491960531C0365481C1065D0
:10049000012008653B48344A39A1784400F0EAF865
:1004A00020B9384878440A3800F08BF937482F4A89
:1004B00035A1784400F0DEF820B9344878440A3891
:1004C00000F07FF932482A4A2FA1784400F0D2F890
:1004D00020B92F4878440A3800F073F940232248A5
:1004E000DC000021224600F0A1F820B12548784424
:1004F000543800F066F91D4822464023002100F0E0
:1005000095F820B121487844543800F05AF9184839
:1005100022461023002100F089F8002806D01C484C
:100520007844BDE81040563800F04BB910BD104873
:1005300070B5006D20F001040B4800F013F90B4872
:1005400000F010F90A4800F00DF909E0206D20F0E4
:100550000105204600F006F9204600F040F82C4640
:10056000002CF3D170BD00001000002064000020BA
:10057000B800002000000020040000200800002037
:1005800072000000DE12000077000000CA120000B6
:10059000B6120000754600F075F9AE4605006946D2
:1005A000534620F00700854618B020B5FFF73EFE01
:1005B000BDE820404FF000064FF000074FF0000864
:1005C0004FF0000BAC46ACE8C009ACE8C009ACE8A1
:1005D000C009ACE8C00921F007018D46704770B52D
:1005E0000446051F00F052F90068002C14BF44684F
:1005F00070BD002C18BFAC423CBF20466468F8D3E5
:1006000001680A18AA4218BF456003D12A68054646
:100610001144016028684119A1421CBF6C6070BD83
:100620006168696021680844286070BD70B5C4685D
:10063000A50713D0650211D4B2F5807F09D0B2F5B9
:10064000007F06D0B2F5806F08D1012300F12401AC
:1006500006E05D1E6FF07F46B54201D3012070BDFC
:100660000161C361416024F470611143C1600020E5
:1006700070BD00002DE9F0410C461646070047D03A
:10068000104600F06FF82078611C61280AD07228AB
:1006900002D077283CD102E00125002405E00225A4
:1006A000042402E0082448F2020511F8010B2B286B
:1006B00006D0622809D011F8010C74280AD00BE08A
:1006C00045F0030544F00204EFE745F0040544F06B
:1006D0000104EAE744F010043846214600F09FF890
:1006E000411C15D00021316171604FF40071F5603B
:1006F000F1617061200704D530460222002100F02C
:100700003FF9306D40F0010030653046BDE8F081C2
:100710000020FBE72DE9F0410D460646104C206D08
:10072000C10704D0410804D020F00104F7E72246B5
:100730000EE0542000F0F5F807000ED0206D47F0D1
:100740000101084354212065384600F041F83A463B
:1007500029463046BDE8F0418CE70020D6E700008E
:10076000100000202DE9F04704464FF0FF38002626
:10077000C568D4E90497A80718D0204600F0BCF952
:10078000384600F056F8002800DA4646280502D51B
:100790004846FFF724FF4C21204600F019F8206D51
:1007A00020F0010020653046BDE8F0874046FBE7B9
:1007B00010B50446AFF300802046BDE81040FFF7B7
:1007C00021BD10B500F0E2F9BDE8104000F0D8B945
:1007D0004FF0000200B5134694469646203922BFDA
:1007E000A0E80C50A0E80C50B1F12001BFF4F7AF25
:1007F000090728BFA0E80C5048BF0CC05DF804EB07
:10080000890028BF40F8042B08BF704748BF20F874
:10081000022B11F0804F18BF00F8012B70470EB566
:10082000CDE9000100F034FA029069460120ABBE28
:100830000EBD08B5694600900220ABBE08BD1FB5CD
:100840008DE8070069460520ABBE04B010BD1FB59A
:100850008DE80F0069460620ABBEF6E708B569468D
:1008600000900920ABBE08BD1CB5CDE9000169466A
:100870000A20ABBE1CBD704708B5694600900C202D
:10088000ABBE08BD004870470C010020004870470F
:1008900014010020704770477047704738B5044610
:1008A0000A4600206946AFF30080002808BF38BD23
:1008B00002460099204600F090F9012038BD012041
:1008C00000F0DFB9F8B5AFF30080054600200C4614
:1008D0000C2000BF0646A819A0420DD93246694631
:1008E0000020AFF30080070008BF00F0CAF90098AD
:1008F000A04218BF0546C419FFF7C8FF05600746A8
:10090000F01D20F007004619284600F060F9B442B7
:1009100008BFF8BDA21B31463868BDE8F84000F0BA
:100920005CB970B50646FFF7B1FF056806F10B002C
:1009300020F00704B4429CBF002070BD2B466A68BB
:10094000BAB11068A04210D304F1080188423CBF3C
:100950005068586007D35168101941601168091B2D
:10096000016058601460101D70BD13465268002A63
:10097000E7D121462846FFF791FF0028DED170BD60
:100980002DE9F041044616460D464769007B800775
:100990002ED03846FFF762FF50BB3EB3012E02D087
:1009A000022E25D104E0204600F031F905441DE077
:1009B0003846FFF761FFE168002841F01001E1606F
:1009C00005DA204600F058F80120BDE8F081C9039F
:1009D0000BD56268E16A914200D81146A2691144C0
:1009E0002269891A814200DD08460544002D01DA9A
:1009F0000220EAE7E16A6068E268814206D2910378
:100A0000E06203D522F4003141F01002A66900270C
:100A1000AE4213DCE16A814201D90B4600E0034695
:100A200003EB060C2369ACEB030CAC4506DD8142FD
:100A300001D98C4600E084469C4505D1A76027601B
:100A400042F02000A5620DE0AD1BE669AE1B8142BD
:100A5000A66000D90846C01A281A2060581960609C
:100A600022F0200003490840E060002084F848702C
:100A7000ABE70000BFCFD7FFC16821F4001141F000
:100A80008001C16000218160016070472DE9F74F4E
:100A900015460C464FF0FF3B3848D768D2F814A0F3
:100AA000074209D05046A969FFF7DEFE002819DB8E
:100AB0003248C0430740EF604FF000496FF00048F4
:100AC0004C4501D3464600E0264600993B46504639
:100AD0003246FFF7B4FEA96920F00042B21A114471
:100AE000A96128B12846FFF7C7FF5846BDE8FE8F29
:100AF000A41BE5D10020F9E770B504460569C06A7A
:100B00006168884200D80846E16821F42011E1605C
:100B1000C90312D5A84208D02246411B2846FFF738
:100B2000B5FF10B14FF0FF3070BD0020E562C4E9A1
:100B30000150E06820F48030E060002070BD10B506
:100B40000446C06820F02000E060A16AA0698842E5
:100B50000DD02046FFF7D0FFE06820F4405040F071
:100B60001000E060A06AA0612069E062606044F269
:100B70004001E0688843E06010BD00001000020002
:100B8000002801D000F01CB87047000010B50146E5
:100B900002A000F05DF8012010BD0000534947524B
:100BA000545245443A2052656469726563743A2030
:100BB00063616E2774206F70656E3A20000000003C
:100BC00001491820ABBEFEE7260002007047002155
:100BD0000160416070470C207047034640688C46B6
:100BE000002818BF88423CBF03464068F8D3186805
:100BF0001844884207D00CF1030020F00700001DC4
:100C0000411A521A0146081D0A60FFF7E8BC10B5E8
:100C10000146C268900703D0900607D5886A0AE0AB
:100C200000F05CF801210160881E10BD8B694868E6
:100C300018440B69C01A91F848301BB191F849105B
:100C4000401A10BD1103FCD50028FADD401E10BD6E
:100C500070B505460C460A2000E06D1C00F037F820
:100C600035B128780028F8D102E0641C00F02FF894
:100C700014B120780028F8D1BDE870400A2000F0B7
:100C800026B810B500F02EF8BDE81040FFF778BF89
:100C900010B5431C02E010F8011B71B18107FAD1B5
:100CA0004FF0013202C88C1A8C4314EAC211F9D0F9
:100CB000C01A0A0603D0C01E10BDC01A10BD0A0417
:100CC00001D0801E10BD0902FCD0401E10BD08B529
:100CD00069468DF800000320ABBE08BD0048704790
:100CE0000C01002010B5012805D0002103A0FFF75A
:100CF000AFFF012010BD09A1F8E70000534947529A
:100D0000544D454D3A204F7574206F6620686561DB
:100D100070206D656D6F7279000000003A204865A3
:100D20006170206D656D6F727920636F727275707E
:100D300074656400FEE70000FEE70000FEE70000C7
:100D4000FEE70000FEE70000FEE70000FEE700000F
:100D500000F0D8B880B581B041F2040EC4F2020EA2
:100D60005EF8041C41F001014EF8041C5EF8041CFE
:100D70008907FBD5DEF8001041F08001CEF80010A5
:100D800000210091009A4F2A06D800BF009A013234
:100D90000092009A502AF9D3DEF8002042F0900227
:100DA000CEF80020009100994F2905D80099013113
:100DB000009100995029F9D3DEF800104FF6FF7228
:100DC00021F00301CEF800105EF8041CCFF6F662A5
:100DD00011404EF8041CDEF800100C23CEF6FF0381
:100DE0001940CEF800105EF8041C4FF6FF7C11404D
:100DF0004EF8041C5EF8041CCFF2007C21F4802124
:100E00004EF8041CDEF80010002301EA0C01CEF8B5
:100E100000105EF8041C11404EF8041C4FF41F0132
:100E2000CEF804105EF8041C4FF6FE7241F48031D7
:100E30004EF8041C5EF8040C013A43F100018003F3
:100E400001D40029F6D15EF8040C800301D400BF60
:100E5000FEE7DEF800000CF54301CEF80000DEF8F6
:100E60000000CEF80000DEF8000040F48060CEF80C
:100E70000000DEF8000020F44030CEF80000DEF87C
:100E8000000040F44030CEF80000DEF800000840DA
:100E9000CEF80000DEF8000040F0006040F42010C2
:100EA000CEF800005EF8040C40F080704EF8040CA0
:100EB0005EF8040C8001FBD5DEF8000020F0030092
:100EC000CEF80000DEF8000040F00200CEF800008E
:100ED000DEF8000000F00C000828F9D14FF00060A7
:100EE000002101B0BDE8804000F0CEBAFEE700006E
:100EF00040F26C11C2F20001086000BF08680028CF
:100F0000FCD1704740F26C10C2F200000168002969
:100F100008BF7047016801390160704740F2084C12
:100F2000C4F2010C5CF8083C012923EA00034CF8E8
:100F3000083C5CF8043C23EA00034CF8043CDCF871
:100F4000003023EA0003CCF80030DCF8043023EA58
:100F50000003CCF8043019D021B95CF8081C014317
:100F60004CF8081C022A18D0012A6FEA000118D098
:100F7000002A18BF7047DCF800201043CCF80000AE
:100F8000DCF804000840CCF8040070475CF8041C4E
:100F900001434CF8041C022AE6D1DCF8001001439E
:100FA00002E0DCF800201140CCF80010DCF804105E
:100FB0000843CCF80400704740F21441C4F2010128
:100FC00008607047B0B543F60005C4F20105044659
:100FD000C1B2284600F048FB2846072100F08CFBF0
:100FE0000028F9D02046B0BD70B50446A0F180407D
:100FF000A0F58840B0FA80F0460923A050F82600FA
:1010000000F0A6FA22A050F8260000F0A1FA22A0D3
:1010100050F8265022A050F82630284618210322E6
:1010200000F03EF920A050F8263028460421032283
:1010300000F036F9204600F01BFB20464FF4E1316A
:1010400000F0DCFA2046002100F090FB2046002151
:1010500000F07EFB2046002100F06CFB20460021C2
:1010600000F05EFB2046002100F050FB20460421EA
:1010700000F068FB2046082100F072FB2046BDE826
:10108000704000F033BB00BF020600000206000003
:101090000E06000011070000000801400008014092
:1010A000000200000400000000040000080000002E
:1010B00070B504461AA050F824000D4600F048FA16
:1010C0004FF4C06000F044FA41F2947041F2887627
:1010D000C0F60000C0F6000650F8240056F8243090
:1010E0000421032200F0DCF8012D18BF70BD0FA011
:1010F000005D0221002200F095F90DA00DA1005D18
:10110000095D00F08BF856F82440002120460122AA
:10111000FFF704FF2046BDE87040FFF74DBF00BF5A
:10112000020600000406000003060000062828004E
:1011300000020100000D0E0080B541F29471C0F66E
:10114000000151F8202041F28871C0F6000151F8E9
:101150002010104600F0FAF8C0B280BDB0B50446C9
:101160000CA050F8240000F0F3F941F2A070C0F692
:10117000000050F8245041F2B070C0F6000050F862
:101180002440284610210322234600F089F86C6190
:10119000B0BD00BF04060000040600000606000003
:1011A0000606000041F2B07141F2A072C0F60001E3
:1011B000C0F6000251F8201052F82000416170473B
:1011C00041F2B07141F2A072C0F60001C0F6000217
:1011D00051F8201052F8200001617047B0B541F27B
:1011E000A071C0F6000151F8204041F2B071C0F684
:1011F000000151F820502046294600F0A7F8C0F120
:10120000010220462946BDE8B04000F001B80000C8
:101210001023002A08BF1423195070470C2240F2F3
:10122000080C02EA81030F22C4F2010C032902FA1E
:1012300003F20BD8DCF8001098409143CCF8001072
:10124000DCF800100843CCF80000704707290BD8E1
:10125000DCF8041098409143CCF80410DCF804103A
:101260000843CCF804007047D2430B2900FA03F07E
:101270000AD8DCF808101140CCF80810DCF8081087
:101280000843CCF808007047DCF80C101140CCF88B
:101290000C10DCF80C100843CCF80C007047000070
:1012A0002DE9F047CF0601F00F0C00F1100E00F110
:1012B000140A4FF000044FF001094FF00F084FF0EF
:1012C000000748BF4CEA020C0EE000BF166008FAA7
:1012D00004F225EA02020CFA04F52A4302600137FF
:1012E000082F04F104040CD009FA07F212EA0306ED
:1012F000F5D0056828295246E8D04829E7D172463A
:10130000E4E7082400254FF001094FF00F080FE033
:10131000176008FA05F226EA02020CFA05F63243D3
:1013200042600134102C05F1040508BFBDE8F087C8
:1013300009FA04F212EA0307F3D046682829524654
:10134000E6D04829E5D17246E2E70000806808400F
:1013500018BF01207047000000F02AF90020FFF7B5
:10136000FDFE0120FFF7FAFE0220FFF7F7FE43F62D
:101370000000C4F20100FFF737FE00200021FFF754
:1013800097FE002000F08EF8014616A0FEF760FFE1
:10139000012000F087F8014616A0FEF759FF022051
:1013A00000F080F8014617A0FEF752FF032000F07E
:1013B00079F8014617A0FEF74BFF00BF0020FFF7AA
:1013C000BBFE0028FAD10120FFF7FAFE4FF4FA70B5
:1013D000FFF78EFD0120FFF7E5FE0220FFF7FEFE7E
:1013E000ECE700BF0D0A434B5F535953206973204C
:1013F000256400000D0A434B5F4148422069732079
:10140000256400000D0A434B5F415042312069734F
:10141000202564000D0A434B5F415042322069731E
:10142000202564004EF60C5CCEF2000CDCF8003097
:1014300003F4E063A3F54073B3F5A06F01D21B0A78
:1014400006E040F20053C0F2FA53CCF80030022319
:1014500001FA03FCC3F104030F21D94011404EF2FD
:10146000001241EA0C01CEF20002090140EA020337
:1014700083F8001300F01F01012303FA01F11C237C
:1014800003EAD000815070474FF68072C1F6FF72B8
:10149000114008434EF60851CEF200010860BFF338
:1014A0004F8F704710B541F20404C4F20204236860
:1014B000014603F00C00082841F20020C0F27A0037
:1014C00019D1236840F6001CDB03C0F23D0C03D5A4
:1014D00023689B0358BF844620682368C0F3834E6B
:1014E000102000EAD350704401230F2838BF022394
:1014F000184400FB0CF0236811A2C3F30313D35C60
:10150000226841F2C07CC2F30222C0F6000C1CF833
:1015100002E02268032907D820FA03F3DFE801F08C
:101520000F020609184610BD002010BD23FA0EF068
:1015300010BDC2F3C2201CF8000023FA00F010BD59
:101540000000000000000000010203040607080973
:1015500041F2000300F01F018009C4F202034FF0C2
:10156000010CC2580CFA01F11143C1507047000040
:1015700041F2000300F01F018009C4F202034FF0A2
:10158000010CC2580CFA01F122EA0101C150704766
:1015900041F2000300F01F018009C4F202034FF082
:1015A000010CC2580CFA01F11143C1507047000000
:1015B00040F20C00C2F20000006844F6D351C1F2C0
:1015C0006201A0FB01014FF0FF3000EB9110B0F180
:1015D000807F11D24EF21001CEF2000148604EF62B
:1015E0002350CEF20000F0220270002207238A600E
:1015F0000B600270704700BFFEE70000B0B5044604
:1016000044F6FF30C4F200000D4684424FF0000063
:1016100013DD44F60041C4F200018C4219D045F2BA
:101620000001C4F200018C4213D043F60001C4F261
:1016300001018C4210D103200CE044F20041C4F2BD
:1016400000018C4205D044F60001C4F200018C4236
:1016500002D10220FFF726FF00EB5500B0FBF5F0AA
:1016600080B2A060B0BD00006FF35F2141607047A1
:1016700010B544F6FF31C4F20001884215DD44F68E
:101680000041C4F2000188421ED045F20001C4F2BC
:10169000000188421BD043F60001C4F201018842D8
:1016A00018BF10BD40F20E3416E044F20041C4F2FF
:1016B000000188420ED044F60001C4F200018842C5
:1016C00012D140F2124407E040F2134404E040F229
:1016D000144401E040F211442046FFF759FF204630
:1016E000BDE81040FFF744BF10BD0000C16841F4E1
:1016F0000051C16070470000C1F38912105801F019
:101700001F01C84000F0010070470000426901F469
:10171000007122F4007242614269114341617047D5
:10172000426901F4807122F480724261426911437E
:1017300041617047C26822F4C062C260C26811434E
:10174000C1607047C26822F004021143C160704753
:10175000026922F44052026102691143016170473B
:10176000C26822F008021143C1607047C26822F4C7
:101770008052C260C2681143C16070473A747400FD
:101780003A7474003A7474000100000000200000F4
:10179000004000000008014000100140000C014022
:1017A00000100140001001400018014000180140E5
:1017B0000100000004000000010000000200000021
:1017C0000000000001020304E817000800000020E8
:1017D0001000000094010008F81700081000002015
:1017E00060070000B40100080000000000000000D5
:0817F0000000000000F36F0689
:0400000508000131BD
:00000001FF
